{
  "contractName": "SolidityDrive",
  "abi": [
    {
      "constant": true,
      "inputs": [
        {
          "name": "",
          "type": "address"
        },
        {
          "name": "",
          "type": "uint256"
        }
      ],
      "name": "files",
      "outputs": [
        {
          "name": "hash",
          "type": "string"
        },
        {
          "name": "fileName",
          "type": "string"
        },
        {
          "name": "fileType",
          "type": "string"
        },
        {
          "name": "date",
          "type": "uint256"
        },
        {
          "name": "roll",
          "type": "string"
        },
        {
          "name": "fileno",
          "type": "uint256"
        }
      ],
      "payable": false,
      "stateMutability": "view",
      "type": "function"
    },
    {
      "anonymous": false,
      "inputs": [
        {
          "indexed": false,
          "name": "hash",
          "type": "string"
        },
        {
          "indexed": false,
          "name": "roll",
          "type": "string"
        }
      ],
      "name": "LeaderUpdated",
      "type": "event"
    },
    {
      "constant": false,
      "inputs": [
        {
          "name": "_hash",
          "type": "string"
        },
        {
          "name": "_fileName",
          "type": "string"
        },
        {
          "name": "_fileType",
          "type": "string"
        },
        {
          "name": "_date",
          "type": "uint256"
        },
        {
          "name": "_roll",
          "type": "string"
        },
        {
          "name": "_fileno",
          "type": "uint256"
        }
      ],
      "name": "add",
      "outputs": [],
      "payable": false,
      "stateMutability": "nonpayable",
      "type": "function"
    },
    {
      "constant": true,
      "inputs": [
        {
          "name": "_index",
          "type": "uint256"
        }
      ],
      "name": "getFile",
      "outputs": [
        {
          "name": "",
          "type": "string"
        },
        {
          "name": "",
          "type": "string"
        },
        {
          "name": "",
          "type": "string"
        },
        {
          "name": "",
          "type": "uint256"
        },
        {
          "name": "",
          "type": "string"
        },
        {
          "name": "",
          "type": "uint256"
        }
      ],
      "payable": false,
      "stateMutability": "view",
      "type": "function"
    },
    {
      "constant": false,
      "inputs": [
        {
          "name": "_hash",
          "type": "string"
        },
        {
          "name": "_roll",
          "type": "string"
        },
        {
          "name": "totalFiles",
          "type": "uint256"
        }
      ],
      "name": "updateFile",
      "outputs": [
        {
          "name": "success",
          "type": "bool"
        }
      ],
      "payable": false,
      "stateMutability": "nonpayable",
      "type": "function"
    },
    {
      "constant": true,
      "inputs": [
        {
          "name": "a",
          "type": "string"
        },
        {
          "name": "b",
          "type": "string"
        }
      ],
      "name": "compareStrings",
      "outputs": [
        {
          "name": "",
          "type": "bool"
        }
      ],
      "payable": false,
      "stateMutability": "view",
      "type": "function"
    },
    {
      "constant": true,
      "inputs": [],
      "name": "getLength",
      "outputs": [
        {
          "name": "",
          "type": "uint256"
        }
      ],
      "payable": false,
      "stateMutability": "view",
      "type": "function"
    }
  ],
  "bytecode": "0x608060405234801561001057600080fd5b506116a7806100206000396000f3fe608060405234801561001057600080fd5b50600436106100625760003560e01c80632ba6978e146100675780632bfda3131461028057806376e8af6e146104795780637d7e5176146105ed578063be1c766b14610881578063bed34bba1461089f575b600080fd5b6100b36004803603604081101561007d57600080fd5b81019080803573ffffffffffffffffffffffffffffffffffffffff16906020019092919080359060200190929190505050610a09565b604051808060200180602001806020018781526020018060200186815260200185810385528b818151815260200191508051906020019080838360005b8381101561010b5780820151818401526020810190506100f0565b50505050905090810190601f1680156101385780820380516001836020036101000a031916815260200191505b5085810384528a818151815260200191508051906020019080838360005b83811015610171578082015181840152602081019050610156565b50505050905090810190601f16801561019e5780820380516001836020036101000a031916815260200191505b50858103835289818151815260200191508051906020019080838360005b838110156101d75780820151818401526020810190506101bc565b50505050905090810190601f1680156102045780820380516001836020036101000a031916815260200191505b50858103825287818151815260200191508051906020019080838360005b8381101561023d578082015181840152602081019050610222565b50505050905090810190601f16801561026a5780820380516001836020036101000a031916815260200191505b509a505050505050505050505060405180910390f35b6102ac6004803603602081101561029657600080fd5b8101908080359060200190929190505050610cbf565b604051808060200180602001806020018781526020018060200186815260200185810385528b818151815260200191508051906020019080838360005b838110156103045780820151818401526020810190506102e9565b50505050905090810190601f1680156103315780820380516001836020036101000a031916815260200191505b5085810384528a818151815260200191508051906020019080838360005b8381101561036a57808201518184015260208101905061034f565b50505050905090810190601f1680156103975780820380516001836020036101000a031916815260200191505b50858103835289818151815260200191508051906020019080838360005b838110156103d05780820151818401526020810190506103b5565b50505050905090810190601f1680156103fd5780820380516001836020036101000a031916815260200191505b50858103825287818151815260200191508051906020019080838360005b8381101561043657808201518184015260208101905061041b565b50505050905090810190601f1680156104635780820380516001836020036101000a031916815260200191505b509a505050505050505050505060405180910390f35b6105d36004803603606081101561048f57600080fd5b81019080803590602001906401000000008111156104ac57600080fd5b8201836020820111156104be57600080fd5b803590602001918460018302840111640100000000831117156104e057600080fd5b91908080601f016020809104026020016040519081016040528093929190818152602001838380828437600081840152601f19601f8201169050808301925050505050505091929192908035906020019064010000000081111561054357600080fd5b82018360208201111561055557600080fd5b8035906020019184600183028401116401000000008311171561057757600080fd5b91908080601f016020809104026020016040519081016040528093929190818152602001838380828437600081840152601f19601f82011690508083019250505050505050919291929080359060200190929190505050611012565b604051808215151515815260200191505060405180910390f35b61087f600480360360c081101561060357600080fd5b810190808035906020019064010000000081111561062057600080fd5b82018360208201111561063257600080fd5b8035906020019184600183028401116401000000008311171561065457600080fd5b91908080601f016020809104026020016040519081016040528093929190818152602001838380828437600081840152601f19601f820116905080830192505050505050509192919290803590602001906401000000008111156106b757600080fd5b8201836020820111156106c957600080fd5b803590602001918460018302840111640100000000831117156106eb57600080fd5b91908080601f016020809104026020016040519081016040528093929190818152602001838380828437600081840152601f19601f8201169050808301925050505050505091929192908035906020019064010000000081111561074e57600080fd5b82018360208201111561076057600080fd5b8035906020019184600183028401116401000000008311171561078257600080fd5b91908080601f016020809104026020016040519081016040528093929190818152602001838380828437600081840152601f19601f82011690508083019250505050505050919291929080359060200190929190803590602001906401000000008111156107ef57600080fd5b82018360208201111561080157600080fd5b8035906020019184600183028401116401000000008311171561082357600080fd5b91908080601f016020809104026020016040519081016040528093929190818152602001838380828437600081840152601f19601f820116905080830192505050505050509192919290803590602001909291905050506112bf565b005b6108896113e8565b6040518082815260200191505060405180910390f35b6109ef600480360360408110156108b557600080fd5b81019080803590602001906401000000008111156108d257600080fd5b8201836020820111156108e457600080fd5b8035906020019184600183028401116401000000008311171561090657600080fd5b91908080601f016020809104026020016040519081016040528093929190818152602001838380828437600081840152601f19601f8201169050808301925050505050505091929192908035906020019064010000000081111561096957600080fd5b82018360208201111561097b57600080fd5b8035906020019184600183028401116401000000008311171561099d57600080fd5b91908080601f016020809104026020016040519081016040528093929190818152602001838380828437600081840152601f19601f820116905080830192505050505050509192919290505050611431565b604051808215151515815260200191505060405180910390f35b60006020528160005260406000208181548110610a2257fe5b906000526020600020906006020160009150915050806000018054600181600116156101000203166002900480601f016020809104026020016040519081016040528092919081815260200182805460018160011615610100020316600290048015610acf5780601f10610aa457610100808354040283529160200191610acf565b820191906000526020600020905b815481529060010190602001808311610ab257829003601f168201915b505050505090806001018054600181600116156101000203166002900480601f016020809104026020016040519081016040528092919081815260200182805460018160011615610100020316600290048015610b6d5780601f10610b4257610100808354040283529160200191610b6d565b820191906000526020600020905b815481529060010190602001808311610b5057829003601f168201915b505050505090806002018054600181600116156101000203166002900480601f016020809104026020016040519081016040528092919081815260200182805460018160011615610100020316600290048015610c0b5780601f10610be057610100808354040283529160200191610c0b565b820191906000526020600020905b815481529060010190602001808311610bee57829003601f168201915b505050505090806003015490806004018054600181600116156101000203166002900480601f016020809104026020016040519081016040528092919081815260200182805460018160011615610100020316600290048015610caf5780601f10610c8457610100808354040283529160200191610caf565b820191906000526020600020905b815481529060010190602001808311610c9257829003601f168201915b5050505050908060050154905086565b6060806060600060606000610cd2611520565b6000803373ffffffffffffffffffffffffffffffffffffffff1673ffffffffffffffffffffffffffffffffffffffff1681526020019081526020016000208881548110610d1b57fe5b90600052602060002090600602016040518060c0016040529081600082018054600181600116156101000203166002900480601f016020809104026020016040519081016040528092919081815260200182805460018160011615610100020316600290048015610dcd5780601f10610da257610100808354040283529160200191610dcd565b820191906000526020600020905b815481529060010190602001808311610db057829003601f168201915b50505050508152602001600182018054600181600116156101000203166002900480601f016020809104026020016040519081016040528092919081815260200182805460018160011615610100020316600290048015610e6f5780601f10610e4457610100808354040283529160200191610e6f565b820191906000526020600020905b815481529060010190602001808311610e5257829003601f168201915b50505050508152602001600282018054600181600116156101000203166002900480601f016020809104026020016040519081016040528092919081815260200182805460018160011615610100020316600290048015610f115780601f10610ee657610100808354040283529160200191610f11565b820191906000526020600020905b815481529060010190602001808311610ef457829003601f168201915b5050505050815260200160038201548152602001600482018054600181600116156101000203166002900480601f016020809104026020016040519081016040528092919081815260200182805460018160011615610100020316600290048015610fbd5780601f10610f9257610100808354040283529160200191610fbd565b820191906000526020600020905b815481529060010190602001808311610fa057829003601f168201915b505050505081526020016005820154815250509050806000015181602001518260400151836060015184608001518560a001518595508494508393508191509650965096509650965096505091939550919395565b600080600090505b828110156112b25761111e6000803373ffffffffffffffffffffffffffffffffffffffff1673ffffffffffffffffffffffffffffffffffffffff168152602001908152602001600020828154811061106e57fe5b90600052602060002090600602016000018054600181600116156101000203166002900480601f0160208091040260200160405190810160405280929190818152602001828054600181600116156101000203166002900480156111135780601f106110e857610100808354040283529160200191611113565b820191906000526020600020905b8154815290600101906020018083116110f657829003601f168201915b505050505086611431565b156112a557836000803373ffffffffffffffffffffffffffffffffffffffff1673ffffffffffffffffffffffffffffffffffffffff168152602001908152602001600020828154811061116d57fe5b90600052602060002090600602016004019080519060200190611191929190611556565b507fdcbffcd2bd990a26d28efebebb6f9a7a35f2abf2f0e25720c56a457fce2211588585604051808060200180602001838103835285818151815260200191508051906020019080838360005b838110156111f95780820151818401526020810190506111de565b50505050905090810190601f1680156112265780820380516001836020036101000a031916815260200191505b50838103825284818151815260200191508051906020019080838360005b8381101561125f578082015181840152602081019050611244565b50505050905090810190601f16801561128c5780820380516001836020036101000a031916815260200191505b5094505050505060405180910390a160019150506112b8565b808060010191505061101a565b50600190505b9392505050565b6000803373ffffffffffffffffffffffffffffffffffffffff1673ffffffffffffffffffffffffffffffffffffffff1681526020019081526020016000206040518060c00160405280888152602001878152602001868152602001858152602001848152602001838152509080600181540180825580915050906001820390600052602060002090600602016000909192909190915060008201518160000190805190602001906113719291906115d6565b50602082015181600101908051906020019061138e9291906115d6565b5060408201518160020190805190602001906113ab9291906115d6565b506060820151816003015560808201518160040190805190602001906113d29291906115d6565b5060a08201518160050155505050505050505050565b60008060003373ffffffffffffffffffffffffffffffffffffffff1673ffffffffffffffffffffffffffffffffffffffff16815260200190815260200160002080549050905090565b6000816040516020018082805190602001908083835b6020831061146a5780518252602082019150602081019050602083039250611447565b6001836020036101000a03801982511681845116808217855250505050505090500191505060405160208183030381529060405280519060200120836040516020018082805190602001908083835b602083106114dc57805182526020820191506020810190506020830392506114b9565b6001836020036101000a0380198251168184511680821785525050505050509050019150506040516020818303038152906040528051906020012014905092915050565b6040518060c001604052806060815260200160608152602001606081526020016000815260200160608152602001600081525090565b828054600181600116156101000203166002900490600052602060002090601f016020900481019282601f1061159757805160ff19168380011785556115c5565b828001600101855582156115c5579182015b828111156115c45782518255916020019190600101906115a9565b5b5090506115d29190611656565b5090565b828054600181600116156101000203166002900490600052602060002090601f016020900481019282601f1061161757805160ff1916838001178555611645565b82800160010185558215611645579182015b82811115611644578251825591602001919060010190611629565b5b5090506116529190611656565b5090565b61167891905b8082111561167457600081600090555060010161165c565b5090565b9056fea165627a7a723058208dd2557b75cca69f8235374b1f1bb4a0b7d76f6d49f339cd20731df5e55356de0029",
  "source": "pragma solidity ^0.5.0;\r\n\r\ncontract SolidityDrive {\r\n    struct File {\r\n        string hash;\r\n        string fileName;\r\n        string fileType;\r\n        uint date;\r\n        string roll;\r\n        uint fileno;\r\n        \r\n    }\r\n\r\n    mapping(address => File[]) public files;\r\n   \r\n   \r\n   event LeaderUpdated(string hash , string roll);\r\n    \r\n    /* modifier onlyAfter(uint _time) {\r\n        require(\r\n            hasNonZeroData(_time)==0,\r\n            \"Not yet to strated.\"\r\n        );\r\n         _;\r\n    }*/\r\n    \r\n\r\n    function add(string memory  _hash, string memory _fileName, string memory _fileType, uint _date, string memory _roll, uint _fileno) public {\r\n        files[msg.sender].push(File({hash: _hash, fileName: _fileName, fileType: _fileType, date: _date, roll: _roll, fileno: _fileno }));\r\n        \r\n    }\r\n\r\n    function getFile(uint _index) public view returns(string memory, string memory, string memory, uint, string memory, uint) {\r\n        File memory file = files[msg.sender][_index];\r\n        return (file.hash, file.fileName, file.fileType, file.date,file.roll,file.fileno);\r\n    }\r\n    \r\n    /////update status of file storage \r\n    function updateFile(string memory _hash, string memory _roll, uint totalFiles) public returns(bool success) {\r\n      \r\n     for(uint256 i =0; i< totalFiles; i++){\r\n           if(compareStrings(files[msg.sender][i].hash ,_hash)){\r\n              files[msg.sender][i].roll = _roll;\r\n              emit LeaderUpdated(_hash, _roll);\r\n              return true;\r\n           }\r\n     }\r\n      \r\n       return true;\r\n    }\r\n    \r\n    \r\n    /// get file data using file stored time\r\n    /*function getFile1(uint _date) public onlyAfter(_date) view returns(string memory, string memory, string memory,string memory) {\r\n        File memory file = files[msg.sender][_date];\r\n       \r\n        return (file.hash, file.fileName, file.fileType, file.roll);\r\n        \r\n        \r\n    }*/\r\n\r\n    //function compareStrings (string memory a, string memory b)  internal pure returns (bool){\r\n      /// return keccak256(a) == keccak256(b);\r\n///}//\r\n    function compareStrings (string memory a, string memory b) public view returns (bool) {\r\n      return (keccak256(abi.encodePacked((a))) == keccak256(abi.encodePacked((b))) );\r\n   }\r\n\r\n    \r\n    \r\n    function getLength() public view returns(uint) {\r\n        return files[msg.sender].length;\r\n    }\r\n    \r\n    /*function hasNonZeroData(uint _time) public view returns(uint) {\r\n     File memory file = files[msg.sender][_time];\r\n     bytes memory b3 = bytes(file.fileName);\r\n        return b3.length;\r\n        \r\n        \r\n    }*/\r\n    \r\n    \r\n    \r\n    \r\n    \r\n}",
  "sourcePath": "C:/Users/Administrator/Downloads/solidity-drive-app-FINISHED@latest08-01/solidity-drive-app-FINISHED/contracts/SolidityDrive.sol",
  "compiler": {
    "name": "solc",
    "version": "0.5.8+commit.23d335f2.Emscripten.clang"
  },
  "schemaVersion": "3.0.16",
  "updatedAt": "2020-01-07T23:52:12.989Z",
  "devdoc": {
    "methods": {}
  },
  "userdoc": {
    "methods": {
      "compareStrings(string,string)": {
        "notice": "}//"
      },
      "updateFile(string,string,uint256)": {
        "notice": "//update status of file storage "
      }
    }
  }
}